{
  "contractName": "DappTokenSale",
  "abi": [
    {
      "constant": true,
      "inputs": [],
      "name": "tokenSold",
      "outputs": [
        {
          "name": "",
          "type": "uint256"
        }
      ],
      "payable": false,
      "stateMutability": "view",
      "type": "function"
    },
    {
      "constant": true,
      "inputs": [],
      "name": "tokenContract",
      "outputs": [
        {
          "name": "",
          "type": "address"
        }
      ],
      "payable": false,
      "stateMutability": "view",
      "type": "function"
    },
    {
      "constant": true,
      "inputs": [],
      "name": "tokenPrice",
      "outputs": [
        {
          "name": "",
          "type": "uint256"
        }
      ],
      "payable": false,
      "stateMutability": "view",
      "type": "function"
    },
    {
      "inputs": [
        {
          "name": "_tokenContract",
          "type": "address"
        },
        {
          "name": "_tokenPrice",
          "type": "uint256"
        }
      ],
      "payable": false,
      "stateMutability": "nonpayable",
      "type": "constructor"
    },
    {
      "anonymous": false,
      "inputs": [
        {
          "indexed": false,
          "name": "_buyer",
          "type": "address"
        },
        {
          "indexed": false,
          "name": "_amount",
          "type": "uint256"
        }
      ],
      "name": "Sell",
      "type": "event"
    },
    {
      "constant": false,
      "inputs": [
        {
          "name": "_numberOfTokens",
          "type": "uint256"
        }
      ],
      "name": "buyTokens",
      "outputs": [],
      "payable": true,
      "stateMutability": "payable",
      "type": "function"
    }
  ],
  "bytecode": "0x608060405234801561001057600080fd5b5060405160408061032f8339810180604052810190808051906020019092919080519060200190929190505050336000806101000a81548173ffffffffffffffffffffffffffffffffffffffff021916908373ffffffffffffffffffffffffffffffffffffffff16021790555081600160006101000a81548173ffffffffffffffffffffffffffffffffffffffff021916908373ffffffffffffffffffffffffffffffffffffffff160217905550806002819055505050610259806100d66000396000f300608060405260043610610062576000357c0100000000000000000000000000000000000000000000000000000000900463ffffffff1680633610724e14610067578063519ee19e1461008757806355a373d6146100b25780637ff9b59614610109575b600080fd5b61008560048036038101908080359060200190929190505050610134565b005b34801561009357600080fd5b5061009c6101cb565b6040518082815260200191505060405180910390f35b3480156100be57600080fd5b506100c76101d1565b604051808273ffffffffffffffffffffffffffffffffffffffff1673ffffffffffffffffffffffffffffffffffffffff16815260200191505060405180910390f35b34801561011557600080fd5b5061011e6101f7565b6040518082815260200191505060405180910390f35b610140816002546101fd565b3414151561014d57600080fd5b806003600082825401925050819055507f5e5e995ce3133561afceaa51a9a154d5db228cd7525d34df5185582c18d3df093382604051808373ffffffffffffffffffffffffffffffffffffffff1673ffffffffffffffffffffffffffffffffffffffff1681526020018281526020019250505060405180910390a150565b60035481565b600160009054906101000a900473ffffffffffffffffffffffffffffffffffffffff1681565b60025481565b60008082148061021c5750828283850292508281151561021957fe5b04145b151561022757600080fd5b929150505600a165627a7a72305820bce4ab205fbda856cec0e11a90bc130bedfecdea3d801477002b306566868b910029",
  "source": "pragma solidity ^0.4.2;\r\n\r\nimport \"./DappToken.sol\";\r\n\r\ncontract DappTokenSale {\r\n\r\n  address admin;\r\n  DappToken public tokenContract;\r\n  uint256 public tokenPrice;\r\n  uint256 public tokenSold;\r\n\r\n  event Sell(address _buyer, uint256 _amount);\r\n\r\n  constructor(DappToken _tokenContract, uint256 _tokenPrice) public {\r\n    // assign admin\r\n    admin = msg.sender;\r\n    // assign token Contract\r\n    tokenContract = _tokenContract;\r\n    // token Price\r\n    tokenPrice = _tokenPrice;\r\n  }\r\n\r\n  // multiply\r\n  function multiply(uint x, uint y) internal pure returns (uint z) {\r\n        require(y == 0 || (z = x * y) / y == x);\r\n  }\r\n\r\n  function buyTokens(uint256 _numberOfTokens) public payable {\r\n    // require that value is equal to tokens\r\n    require(msg.value == multiply(_numberOfTokens, tokenPrice));\r\n    // require that contract has enough tokens\r\n    // reuiqre that a transfer is successful\r\n    // keep track of number of tokens sold\r\n    tokenSold += _numberOfTokens; \r\n    // trigger Sell Event\r\n    emit Sell(msg.sender, _numberOfTokens);\r\n\r\n  }\r\n\r\n\r\n}",
  "sourcePath": "C:\\token_sale\\contracts\\DappTokenSale.sol",
  "compiler": {
    "name": "solc",
    "version": "0.4.23+commit.124ca40d.Emscripten.clang"
  },
  "schemaVersion": "2.0.0",
  "updatedAt": "2018-05-18T21:03:25.206Z"
}